:1000000067C030C480C07FC07EC07DC07CC07BC064
:100010007AC079C078C077C076C075C0AFC073C0F1
:1000200072C071C070C06FC005010906A1017501E1
:100030009508050719E029E7150025FF81029501BC
:1000400075088103950575010508190129FF9102BD
:1000500095017503910395067508150025FF0507A1
:10006000190029FF8100C004030904200363006F05
:10007000006400650061006E0064006C0069006649
:100080000065002E0063006F006D001003500061DA
:100090000073007300670065006E0012011001001C
:1000A000000008424231E100010102000109022280
:1000B0000001010080190904000001030101000989
:1000C0002101010001223F000705810308000A0009
:1000D00011241FBECFEFD1E0DEBFCDBF11E0A0E005
:1000E000B1E0E0E0FBE002C005900D92A034B10762
:1000F000D9F711E0A0E4B1E001C01D92A739B10722
:10010000E1F7EAD1FBC47CCFFC01808180768032AC
:1001100061F581818230E1F0833018F4813029F576
:1001200005C0893079F08A3001F51AC087E591E081
:1001300090937C0180937B0110925701109259019A
:1001400088E0089586819781019779F48FEF08956B
:100150008FE591E090937C0180937B0181E008958D
:10016000838180935F0180E0089580E0089581E0BD
:100170000895109257018093590108951F920F928C
:100180000FB60F9211248F939F9381E090E090938C
:100190004B0180934A019F918F910F900FBE0F905A
:1001A0001F90189580914A0190914B01892B09F479
:1001B000BDC08091430190914401019709F4B6C0FC
:1001C00080914001813009F4B1C010924B0110922E
:1001D0004A0149B1437FA0914C012A2F30E0F90137
:1001E000E35BFE4F808184274083882309F472C03B
:1001F000942F40FD1AC080FF18C081E08093400119
:10020000C90166E070E068D4FC01E050FF4F8081D6
:1002100090E09093460180934501805E9040029764
:1002200008F058C01092400155C091FD0EC081FFEA
:100230000CC081E080934001C90166E070E04CD4BD
:10024000FC01E050FF4F818141C094FD10C084FF4C
:100250000EC081E080934001C90163E070E03CD4AE
:10026000FC01EE0FFF1FEE5FFE4F80812FC095FD5A
:100270000EC085FF0CC081E080934001C90166E09B
:1002800070E02AD4FC01E050FF4F83811FC096FD2F
:100290000EC086FF0CC081E080934001C90166E07A
:1002A00070E01AD4FC01E050FF4F84810FC047FD7D
:1002B00011C087FF0FC081E080934001C90166E053
:1002C00070E00AD4FC01E050FF4F85818093450126
:1002D0001092460180913C0190913D01880F991F39
:1002E00090933D0180933C01AF5FA0934C0180341B
:1002F000910531F480E890E090933D0180933C01BA
:1003000080913C0190913D018050944041F481E006
:1003100090E090933D0180933C0110924C019091AC
:100320003C0180913D0197B984608DB90895809119
:100330004001813091F080913C0190913D018038E5
:10034000910519F08050914041F4489906C081E030
:1003500090E090934401809343010895809143017C
:1003600090914401892B09F45BC048993BC02091CE
:100370004701309148012F5F3F4F30934801209350
:1003800047018091450190914601803E910539F4E5
:100390001092460110924501109240010895205C90
:1003A000324109F03DC080913C0190913D0180387F
:1003B000910519F484E490E005C08050914051F417
:1003C00089E290E0909346018093450110924801A4
:1003D0001092470181E080934001109244011092F5
:1003E0004301089510924801109247011092440170
:1003F0001092430180913C0190913D01803891051C
:1004000019F481EE90E005C08050914031F480EE07
:1004100090E0909346018093450181E080934001F4
:10042000089510926B0010926D0010926A0017B838
:1004300018B88AB18C708AB98BB11BB884E08DB9B9
:100440001EB810928000109281001092820081E00C
:1004500084B915B8089520914101309142012932A3
:10046000310561F48091450190914601803E9105EE
:1004700079F410924601109245010AC0203E3105E0
:1004800069F480914501909146018997B1F410C0BB
:100490008091450190914601899751F024343105AE
:1004A00061F48091450190914601813E910599F456
:1004B00010924601109245010895213E310559F4EC
:1004C00080914501909146018434910521F4109268
:1004D00046011092450108951F93A3DFE7E5F1E07F
:1004E000119281E0EF35F807D9F72EE088E190E02E
:1004F0000FB6F894A895809360000FBE209360001B
:1005000044D0539A20E040E757E1A895CA010197EB
:10051000F1F72F5F2A3FC9F745D05398F89482E04E
:1005200085BD81E080936E00789412E000DF16DFD5
:1005300039DEA89537D080916C0184FF21C080916D
:1005400040018823E9F087DF80914001813019F074
:100550008230A1F40FC08091450190914601109224
:100560005701809359018093410190934201109368
:10057000400106C01092570110925901109240019B
:1005800087E591E068E033D1D1CFE9E6F0E0808102
:1005900082608083E89A8BE480936D018AE5809382
:1005A0006C0108951F93CF93DF9360917D01635099
:1005B00067FDC2C080917A01CCE0D0E0C81BD109B0
:1005C000CF57DE4F809179018D3209F0A3C068309A
:1005D00009F0B0C083EC809361018AE580933E010D
:1005E000109260018881807639F0CE018DDD282F50
:1005F0008F3F09F47EC084C09A8110926A0189817C
:10060000882321F410926B0122E06CC0853019F42C
:1006100090937E0166C0863009F04FC08B81813097
:1006200041F48BE990E090937C0180937B0122E17F
:1006300040C0823041F48DEA90E090937C01809339
:100640007B0122E236C08330F9F48A81882341F4A9
:1006500087E690E090937C0180937B0124E029C0A1
:10066000813041F48BE690E090937C0180937B0194
:1006700020E21FC08230E1F48BE890E090937C018F
:1006800080937B0120E115C0813241F48FEB90E033
:1006900090937C0180937B0129E00BC0823241F46E
:1006A00088E290E090937C0180937B012FE301C06E
:1006B00020E080E48093600123C0883021F421E0B1
:1006C00080E891E011C0893019F49093800109C04D
:1006D0008A3011F421E006C08B3019F48BE480934A
:1006E0006D0120E08AE691E090937C0180937B018C
:1006F00007C0888187FD2E8180E88093600106C055
:100700008F81882319F48E81821708F0822F8093BD
:100710003F0110C08091600187FF0CC0CE0127DD32
:100720008F3F21F48EE180933E0104C0882311F0B5
:1007300010923F0110927D0180913E0184FF49C0DB
:1007400080913F018F3F09F444C0182F893008F091
:1007500018E0811B80933F018091610198E889270F
:1007600080936101112341F120917B0130917C0143
:100770008091600186FF0DC0A2E6B1E080E090E0CC
:10078000F901E80FF91FE491ED9301961817C1F7ED
:1007900008C0912FD901E2E6F1E08D91819391504B
:1007A000E1F71150812F90E01F5F0196820F931F98
:1007B00090937C0180937B0182E691E0612F4ED083
:1007C000612F6C5F6C3019F08FEF80933F01609365
:1007D0003E0194E189B18C7031F49150D9F71092B7
:1007E0007E0110927801DF91CF911F9108951F93A0
:1007F000DC01162F80916C0184FF07C080916D0190
:1008000098E8892780936D0103C08AE580936C0185
:10081000912FEEE6F1E08D91819391501916DCF362
:100820008EE691E0612F1AD01C5F10936C011F912E
:100830000895A82FB92F80E090E041E050EA60953C
:1008400030E009C02D9182279795879510F0842775
:100850009527305EC8F36F5FA8F30895EADF8D93A4
:100860009D930895CF93CFB7CF93C3954B9BE9F753
:100870004B9B09C04B9B07C04B9B05C04B9B03C0C8
:100880004B9B01C0A3C0DF93C0917A01DD27CF57F6
:10089000DE4F4B9B02C0DF91EBCF2F930F931F9343
:1008A00009B12FEF03FB20F94F933F9319B14FEF9D
:1008B000012703FB21F93BE031C04E7F012F19B125
:1008C000216028C0102F4D7F2260000009B129C08F
:1008D0004B7F2460012F000019B12BC019B1477F55
:1008E00028602AC04F7E09B120612CC04F7D19B10C
:1008F00020622FC04F7B09B1206432C0422709B16A
:1009000049934FEF0000102713FB20F919B11C7019
:10091000C9F1297F91F2012703FB21F909B1237F56
:1009200089F2315058F1102713FB22F919B1277EB3
:1009300079F2012703FB23F92F7C81F209B11027FB
:1009400013FB24F92F7971F200C019B1012703FBC1
:1009500025F92F7359F200C009B1102713FB26F9AE
:10096000223040F200C019B1012703FB27F92430DF
:1009700028F64F77206819B10000F9CF11E01CBBB1
:10098000002719C03B503195C31BD04011E01CBB60
:100990000881033CF9F00B34E9F0209178011981CA
:1009A000110F1213EDCF4A81441F093641F10D3268
:1009B00011F0013E29F700937F013F914F911F9164
:1009C0000F912F91DF91CCB3C0FD4FCFCF91CFBF0F
:1009D000CF91189520917F01222379F310917D0109
:1009E000112369F534306AF130937D012093790148
:1009F00010917A013BE0311B30937A0122C00091C3
:100A00007D010130E4F40AE54F7049F430913E0174
:100A100034FD19C000933E01C1E6D1E018C0309109
:100A20006C0134FD10C000936C01CDE6D1E00FC025
:100A30002795A8F45150A9F4220F0000F9CF4AE5F8
:100A400003C042ED01C0432FC4E1D0E032E01AB14F
:100A50001C605B9A1AB90BB120E41CE05F9301277C
:100A600056E00BB9279520F4515021F4220FF9CF0D
:100A7000012756E000003B5A0BB9D0F2279528F425
:100A8000515029F4220F0000F9CF012756E0279595
:100A90000BB920F4515021F4220FF9CF012756E071
:100AA000299133230BB921F6037F10917E01110F99
:100AB000C651D0400BB911F01093780111E01CBB66
:100AC00008601AB1137F402F437F5F9100C000C0C0
:100AD0000BB91AB94BB971CF5527002480FF02C05A
:100AE000060E571F660F771F6115710521F0969549
:100AF0008795009799F7952F802D0895F894FFCF4B
:100B0000000506070809000B0C0D0E0F001112134B
:100B10001415001718191A1B00581D1C4C2A2B16E7
:100B200024252654E10A21222355E0041E1F2056C5
:100B3000001027372C5729000000000001005AFF41
:00000001FF
