:1000000067C016C480C07FC07EC07DC07CC07BC07E
:100010007AC079C078C077C076C075C0E9C073C0B7
:1000200072C071C070C06FC005010906A1017501E1
:100030009508050719E029E7150025FF81029501BC
:1000400075088103950575010508190129FF9102BD
:1000500095017503910395067508150025FF0507A1
:10006000190029FF8100C004030904200363006F05
:10007000006400650061006E0064006C0069006649
:100080000065002E0063006F006D001003500061DA
:100090000073007300670065006E0012011001001C
:1000A000000008424231E100010102000109022280
:1000B0000001010080190904000001030101000989
:1000C0002101010001223F000705810308000A0009
:1000D00011241FBECFEFD1E0DEBFCDBF11E0A0E005
:1000E000B1E0ECECFAE002C005900D92A034B1074B
:1000F000D9F711E0A0E4B1E001C01D92A939B10720
:10010000E1F7C6D1E1C47CCFFC01808180768032EA
:1001100061F581818230E1F0833018F4813029F576
:1001200005C0893079F08A3001F51AC089E591E07F
:1001300090937E0180937D011092590110925B0192
:1001400088E0089586819781019779F48FEF08956B
:1001500081E691E090937E0180937D0181E0089596
:1001600083818093610180E0089580E0089580910B
:1001700043019091440184349105B9F48091470181
:1001800090914801813E910559F480914001813060
:1001900039F48091410190914201885E9340CCF006
:1001A000109242011092410108958997C9F48091FB
:1001B000470190914801803E910571F48091400182
:1001C000813051F48091410190914201885E9340C9
:1001D0001CF41092400108951092420110924101C6
:1001E000089581E008951092590180935B0108956C
:1001F0001F920F920FB60F9211248F939F9381E05D
:1002000090E090934D0180934C019F918F910F90BE
:100210000FBE0F901F90189580914C0190914D0149
:10022000892B09F4B4C08091450190914601019752
:1002300009F4ADC010924D0110924C018091410122
:10024000909142010196909342018093410149B1FE
:10025000437FA0914E012A2F30E0F901E15BFE4F70
:10026000808184274083882309F465C0942F40FD52
:100270000DC080FF0BC081E080934001C90166E0A2
:1002800070E010D4FC01E050FF4F20C091FD0EC083
:1002900081FF0CC081E080934001C90166E070E0FD
:1002A00001D4FC01E050FF4F818141C094FD10C09A
:1002B00084FF0EC081E080934001C90163E070E0DB
:1002C000F1D3FC01EE0FFF1FEE5FFE4F80812FC0C8
:1002D00095FD0EC085FF0CC081E080934001C901EF
:1002E00066E070E0DFD3FC01E050FF4F83811FC068
:1002F00096FD0EC086FF0CC081E080934001C901CD
:1003000066E070E0CFD3FC01E050FF4F84810FC066
:1003100047FD11C087FF0FC081E080934001C901F4
:1003200066E070E0BFD3FC01E050FF4F8581809311
:1003300047011092480180913C0190913D01880F46
:10034000991F90933D0180933C01AF5FA0934E01B4
:100350008034910531F480E890E090933D018093E2
:100360003C0180913C0190913D018050944041F4CA
:1003700081E090E090933D0180933C0110924E010A
:1003800090913C0180913D0197B984608DB90895A9
:1003900080914001813091F080913C0190913D012C
:1003A0008038910519F08050914041F4489906C079
:1003B00081E090E0909346018093450108958091FB
:1003C000450190914601892B09F447C0489927C0FF
:1003D0008091490190914A01019690934A0180933E
:1003E0004901805C9241C9F580913C0190913D01A9
:1003F0008038910519F484E490E005C08050914064
:1004000051F489E290E09093480180934701109263
:100410004A011092490181E08093400108951092B1
:100420004A011092490110924601109245018091B3
:100430003C0190913D018038910519F481EE90E0E6
:1004400005C08050914031F480EE90E090934801D7
:100450008093470181E080934001089510926B00E2
:1004600010926D0010926A0017B818B88AB18C709B
:100470008AB98BB11BB884E08DB91EB81092800088
:10048000109281001092820081E084B915B808951D
:100490001F93E4DFE9E5F1E0119281E0E136F8072E
:1004A000D9F72EE088E190E00FB6F894A8958093F4
:1004B00060000FBE209360004ED0539A20E040E7CA
:1004C00057E1A895CA010197F1F72F5F2A3FC9F7B5
:1004D0004FD05398F89482E085BD81E080936E0000
:1004E000789412E055DF6BDF97DEA89541D08091BC
:1004F0006E0184FF2BC080914001882339F137DEE3
:1005000080914001813019F08230F1F419C080915E
:100510004701909148011092590180935B0190939B
:100520004401809343018932910519F08434910587
:1005300021F410924601109245011093400106C02B
:100540001092590110925B011092400189E591E0EF
:1005500068E033D1C7CFE9E6F0E080818260808334
:10056000E89A8BE480936F018AE580936E01089589
:100570001F93CF93DF9360917F01635067FDC2C0EB
:1005800080917C01CCE0D0E0C81BD109CD57DE4F73
:1005900080917B018D3209F0A3C0683009F0B0C0B2
:1005A00083EC809363018AE580933E01109262019F
:1005B0008881807639F0CE01A7DD282F8F3F09F49E
:1005C0007EC084C09A8110926C018981882321F4B5
:1005D00010926D0122E06CC0853019F49093800177
:1005E00066C0863009F04FC08B81813041F48BE9C1
:1005F00090E090937E0180937D0122E140C08230A3
:1006000041F48DEA90E090937E0180937D0122E297
:1006100036C08330F9F48A81882341F487E690E07C
:1006200090937E0180937D0124E029C0813041F4C4
:100630008BE690E090937E0180937D0120E21FC0C5
:100640008230E1F48BE890E090937E0180937D010D
:1006500020E115C0813241F48FEB90E090937E0150
:1006600080937D0129E00BC0823241F488E290E062
:1006700090937E0180937D012FE301C020E080E410
:100680008093620123C0883021F421E082E891E068
:1006900011C0893019F49093820109C08A3011F495
:1006A00021E006C08B3019F48BE480936F0120E0C9
:1006B0008CE691E090937E0180937D0107C0888154
:1006C00087FD2E8180E88093620106C08F81882398
:1006D00019F48E81821708F0822F80933F0110C099
:1006E0008091620187FF0CC0CE017BDD8F3F21F43A
:1006F0008EE180933E0104C0882311F010923F01E7
:1007000010927F0180913E0184FF49C080913F019A
:100710008F3F09F444C0182F893008F018E0811B7E
:1007200080933F018091630198E88927809363015A
:10073000112341F120917D0130917E018091620170
:1007400086FF0DC0A4E6B1E080E090E0F901E80F7B
:10075000F91FE491ED9301961817C1F708C0912F86
:10076000D901E4E6F1E08D9181939150E1F71150C8
:10077000812F90E01F5F0196820F931F90937E015F
:1007800080937D0184E691E0612F4ED0612F6C5FF4
:100790006C3019F08FEF80933F0160933E0194E13C
:1007A00089B18C7031F49150D9F710928001109278
:1007B0007A01DF91CF911F9108951F93DC01162FCD
:1007C00080916E0184FF07C080916F0198E88927AE
:1007D00080936F0103C08AE580936E01912FE0E75B
:1007E000F1E08D91819391501916DCF380E791E04F
:1007F000612F1AD01C5F10936E011F910895A82FCE
:10080000B92F80E090E041E050EA609530E009C007
:100810002D9182279795879510F084279527305E34
:10082000C8F36F5FA8F30895EADF8D939D93089551
:10083000CF93CFB7CF93C3954B9BE9F74B9B09C0A1
:100840004B9B07C04B9B05C04B9B03C04B9B01C000
:10085000A3C0DF93C0917C01DD27CD57DE4F4B9BBA
:1008600002C0DF91EBCF2F930F931F9309B12FEFAE
:1008700003FB20F94F933F9319B14FEF012703FB7F
:1008800021F93BE031C04E7F012F19B1216028C012
:10089000102F4D7F2260000009B129C04B7F2460DA
:1008A000012F000019B12BC019B1477F28602AC061
:1008B0004F7E09B120612CC04F7D19B120622FC03D
:1008C0004F7B09B1206432C0422709B149934FEFF1
:1008D0000000102713FB20F919B11C70C9F1297F02
:1008E00091F2012703FB21F909B1237F89F23150ED
:1008F00058F1102713FB22F919B1277E79F201274D
:1009000003FB23F92F7C81F209B1102713FB24F993
:100910002F7971F200C019B1012703FB25F92F735C
:1009200059F200C009B1102713FB26F9223040F21A
:1009300000C019B1012703FB27F9243028F64F77AF
:10094000206819B10000F9CF11E01CBB002719C0C5
:100950003B503195C31BD04011E01CBB0881033CC8
:10096000F9F00B34E9F020917A011981110F12137B
:10097000EDCF4A81441F093641F10D3211F0013E9D
:1009800029F7009381013F914F911F910F912F9172
:10099000DF91CCB3C0FD4FCFCF91CFBFCF91189592
:1009A00020918101222379F310917F01112369F5B0
:1009B00034306AF130937F0120937B0110917C01E8
:1009C0003BE0311B30937C0122C000917F0101305C
:1009D000E4F40AE54F7049F430913E0134FD19C04A
:1009E00000933E01C3E6D1E018C030916E0134FDA2
:1009F00010C000936E01CFE6D1E00FC02795A8F498
:100A00005150A9F4220F0000F9CF4AE503C042ED8E
:100A100001C0432FC4E1D0E032E01AB11C605B9A00
:100A20001AB90BB120E41CE05F93012756E00BB923
:100A3000279520F4515021F4220FF9CF012756E0D9
:100A400000003B5A0BB9D0F2279528F4515029F4F5
:100A5000220F0000F9CF012756E027950BB920F4AB
:100A6000515021F4220FF9CF012756E02991332369
:100A70000BB921F6037F10918001110FC651D040B0
:100A80000BB911F010937A0111E01CBB08601AB188
:100A9000137F402F437F5F9100C000C00BB91AB98C
:100AA0004BB971CF5527002480FF02C0060E571F97
:100AB000660F771F6115710521F096958795009750
:0C0AC00099F7952F802D0895F894FFCF32
:100ACC00000506070809000B0C0D0E0F0011121380
:100ADC001415001718191A1B00581D1C4C2A2B161C
:100AEC0024252654E10A21222355E0041E1F2056FA
:100AFC00001027372C5729000000000001005AFF76
:00000001FF
